{
  "_format": "hh-sol-artifact-1",
  "contractName": "EggChain",
  "sourceName": "contracts/EggChain.sol",
  "abi": [
    {
      "anonymous": false,
      "inputs": [
        {
          "indexed": false,
          "internalType": "uint256",
          "name": "id",
          "type": "uint256"
        },
        {
          "indexed": true,
          "internalType": "address",
          "name": "owner",
          "type": "address"
        },
        {
          "indexed": false,
          "internalType": "string",
          "name": "location",
          "type": "string"
        },
        {
          "indexed": false,
          "internalType": "string",
          "name": "metadata",
          "type": "string"
        }
      ],
      "name": "EggCreated",
      "type": "event"
    },
    {
      "anonymous": false,
      "inputs": [
        {
          "indexed": false,
          "internalType": "uint256",
          "name": "id",
          "type": "uint256"
        },
        {
          "indexed": true,
          "internalType": "address",
          "name": "owner",
          "type": "address"
        },
        {
          "indexed": false,
          "internalType": "enum EggChain.State",
          "name": "state",
          "type": "uint8"
        },
        {
          "indexed": false,
          "internalType": "string",
          "name": "location",
          "type": "string"
        }
      ],
      "name": "EggUpdated",
      "type": "event"
    },
    {
      "inputs": [
        {
          "internalType": "string",
          "name": "_location",
          "type": "string"
        },
        {
          "internalType": "string",
          "name": "_metadata",
          "type": "string"
        }
      ],
      "name": "createEgg",
      "outputs": [],
      "stateMutability": "nonpayable",
      "type": "function"
    },
    {
      "inputs": [],
      "name": "eggCounter",
      "outputs": [
        {
          "internalType": "uint256",
          "name": "",
          "type": "uint256"
        }
      ],
      "stateMutability": "view",
      "type": "function"
    },
    {
      "inputs": [
        {
          "internalType": "uint256",
          "name": "",
          "type": "uint256"
        }
      ],
      "name": "eggs",
      "outputs": [
        {
          "internalType": "uint256",
          "name": "id",
          "type": "uint256"
        },
        {
          "internalType": "address",
          "name": "currentOwner",
          "type": "address"
        },
        {
          "internalType": "string",
          "name": "location",
          "type": "string"
        },
        {
          "internalType": "enum EggChain.State",
          "name": "state",
          "type": "uint8"
        },
        {
          "internalType": "string",
          "name": "metadata",
          "type": "string"
        },
        {
          "internalType": "uint256",
          "name": "timestamp",
          "type": "uint256"
        }
      ],
      "stateMutability": "view",
      "type": "function"
    },
    {
      "inputs": [
        {
          "internalType": "uint256",
          "name": "_id",
          "type": "uint256"
        }
      ],
      "name": "getEgg",
      "outputs": [
        {
          "components": [
            {
              "internalType": "uint256",
              "name": "id",
              "type": "uint256"
            },
            {
              "internalType": "address",
              "name": "currentOwner",
              "type": "address"
            },
            {
              "internalType": "string",
              "name": "location",
              "type": "string"
            },
            {
              "internalType": "enum EggChain.State",
              "name": "state",
              "type": "uint8"
            },
            {
              "internalType": "string",
              "name": "metadata",
              "type": "string"
            },
            {
              "internalType": "uint256",
              "name": "timestamp",
              "type": "uint256"
            }
          ],
          "internalType": "struct EggChain.Egg",
          "name": "",
          "type": "tuple"
        }
      ],
      "stateMutability": "view",
      "type": "function"
    },
    {
      "inputs": [
        {
          "internalType": "uint256",
          "name": "_id",
          "type": "uint256"
        },
        {
          "internalType": "address",
          "name": "_newOwner",
          "type": "address"
        },
        {
          "internalType": "string",
          "name": "_newLocation",
          "type": "string"
        }
      ],
      "name": "updateEgg",
      "outputs": [],
      "stateMutability": "nonpayable",
      "type": "function"
    }
  ],
  "bytecode": "0x6080604052348015600f57600080fd5b506114858061001f6000396000f3fe608060405234801561001057600080fd5b50600436106100575760003560e01c80631f50b7181461005c57806343ec06711461007a5780635b20d17514610096578063bb654efa146100b2578063feb40f7e146100e7575b600080fd5b610064610117565b604051610071919061094f565b60405180910390f35b610094600480360381019061008f9190610ac4565b61011d565b005b6100b060048036038101906100ab9190610bc6565b6102b3565b005b6100cc60048036038101906100c79190610c35565b610519565b6040516100de96959493929190610d67565b60405180910390f35b61010160048036038101906100fc9190610c35565b610692565b60405161010e9190610edd565b60405180910390f35b60015481565b6001600081548092919061013090610f2e565b91905055506040518060c0016040528060015481526020013373ffffffffffffffffffffffffffffffffffffffff1681526020018381526020016000600381111561017e5761017d610cf0565b5b81526020018281526020014281525060008060015481526020019081526020016000206000820151816000015560208201518160010160006101000a81548173ffffffffffffffffffffffffffffffffffffffff021916908373ffffffffffffffffffffffffffffffffffffffff16021790555060408201518160020190816102079190611182565b5060608201518160030160006101000a81548160ff0219169083600381111561023357610232610cf0565b5b0217905550608082015181600401908161024d9190611182565b5060a082015181600501559050503373ffffffffffffffffffffffffffffffffffffffff167f0e936dd3dd324cc66fdd110cf059c9623089fe9048ad7ffeffac977dad9a52d660015484846040516102a793929190611254565b60405180910390a25050565b8260008082815260200190815260200160002060010160009054906101000a900473ffffffffffffffffffffffffffffffffffffffff1673ffffffffffffffffffffffffffffffffffffffff163373ffffffffffffffffffffffffffffffffffffffff1614610357576040517f08c379a000000000000000000000000000000000000000000000000000000000815260040161034e906112e5565b60405180910390fd5b600080600086815260200190815260200160002090506003808111156103805761037f610cf0565b5b8160030160009054906101000a900460ff1660038111156103a4576103a3610cf0565b5b106103e4576040517f08c379a00000000000000000000000000000000000000000000000000000000081526004016103db90611351565b60405180910390fd5b60018160030160009054906101000a900460ff16600381111561040a57610409610cf0565b5b6104149190611371565b600381111561042657610425610cf0565b5b8160030160006101000a81548160ff0219169083600381111561044c5761044b610cf0565b5b0217905550838160010160006101000a81548173ffffffffffffffffffffffffffffffffffffffff021916908373ffffffffffffffffffffffffffffffffffffffff160217905550828160020190816104a59190611182565b504281600501819055508373ffffffffffffffffffffffffffffffffffffffff167f4dec52cb6092d442066154bb0a37b34f81dec0000af68644bd78df7c6396a4e3868360030160009054906101000a900460ff168660405161050a939291906113a5565b60405180910390a25050505050565b60006020528060005260406000206000915090508060000154908060010160009054906101000a900473ffffffffffffffffffffffffffffffffffffffff169080600201805461056890610fa5565b80601f016020809104026020016040519081016040528092919081815260200182805461059490610fa5565b80156105e15780601f106105b6576101008083540402835291602001916105e1565b820191906000526020600020905b8154815290600101906020018083116105c457829003601f168201915b5050505050908060030160009054906101000a900460ff169080600401805461060990610fa5565b80601f016020809104026020016040519081016040528092919081815260200182805461063590610fa5565b80156106825780601f1061065757610100808354040283529160200191610682565b820191906000526020600020905b81548152906001019060200180831161066557829003601f168201915b5050505050908060050154905086565b61069a6108d8565b6000821180156106ac57506001548211155b6106eb576040517f08c379a00000000000000000000000000000000000000000000000000000000081526004016106e29061142f565b60405180910390fd5b6000808381526020019081526020016000206040518060c0016040529081600082015481526020016001820160009054906101000a900473ffffffffffffffffffffffffffffffffffffffff1673ffffffffffffffffffffffffffffffffffffffff1673ffffffffffffffffffffffffffffffffffffffff16815260200160028201805461077890610fa5565b80601f01602080910402602001604051908101604052809291908181526020018280546107a490610fa5565b80156107f15780601f106107c6576101008083540402835291602001916107f1565b820191906000526020600020905b8154815290600101906020018083116107d457829003601f168201915b505050505081526020016003820160009054906101000a900460ff16600381111561081f5761081e610cf0565b5b600381111561083157610830610cf0565b5b815260200160048201805461084590610fa5565b80601f016020809104026020016040519081016040528092919081815260200182805461087190610fa5565b80156108be5780601f10610893576101008083540402835291602001916108be565b820191906000526020600020905b8154815290600101906020018083116108a157829003601f168201915b505050505081526020016005820154815250509050919050565b6040518060c0016040528060008152602001600073ffffffffffffffffffffffffffffffffffffffff168152602001606081526020016000600381111561092257610921610cf0565b5b815260200160608152602001600081525090565b6000819050919050565b61094981610936565b82525050565b60006020820190506109646000830184610940565b92915050565b6000604051905090565b600080fd5b600080fd5b600080fd5b600080fd5b6000601f19601f8301169050919050565b7f4e487b7100000000000000000000000000000000000000000000000000000000600052604160045260246000fd5b6109d182610988565b810181811067ffffffffffffffff821117156109f0576109ef610999565b5b80604052505050565b6000610a0361096a565b9050610a0f82826109c8565b919050565b600067ffffffffffffffff821115610a2f57610a2e610999565b5b610a3882610988565b9050602081019050919050565b82818337600083830152505050565b6000610a67610a6284610a14565b6109f9565b905082815260208101848484011115610a8357610a82610983565b5b610a8e848285610a45565b509392505050565b600082601f830112610aab57610aaa61097e565b5b8135610abb848260208601610a54565b91505092915050565b60008060408385031215610adb57610ada610974565b5b600083013567ffffffffffffffff811115610af957610af8610979565b5b610b0585828601610a96565b925050602083013567ffffffffffffffff811115610b2657610b25610979565b5b610b3285828601610a96565b9150509250929050565b610b4581610936565b8114610b5057600080fd5b50565b600081359050610b6281610b3c565b92915050565b600073ffffffffffffffffffffffffffffffffffffffff82169050919050565b6000610b9382610b68565b9050919050565b610ba381610b88565b8114610bae57600080fd5b50565b600081359050610bc081610b9a565b92915050565b600080600060608486031215610bdf57610bde610974565b5b6000610bed86828701610b53565b9350506020610bfe86828701610bb1565b925050604084013567ffffffffffffffff811115610c1f57610c1e610979565b5b610c2b86828701610a96565b9150509250925092565b600060208284031215610c4b57610c4a610974565b5b6000610c5984828501610b53565b91505092915050565b610c6b81610b88565b82525050565b600081519050919050565b600082825260208201905092915050565b60005b83811015610cab578082015181840152602081019050610c90565b60008484015250505050565b6000610cc282610c71565b610ccc8185610c7c565b9350610cdc818560208601610c8d565b610ce581610988565b840191505092915050565b7f4e487b7100000000000000000000000000000000000000000000000000000000600052602160045260246000fd5b60048110610d3057610d2f610cf0565b5b50565b6000819050610d4182610d1f565b919050565b6000610d5182610d33565b9050919050565b610d6181610d46565b82525050565b600060c082019050610d7c6000830189610940565b610d896020830188610c62565b8181036040830152610d9b8187610cb7565b9050610daa6060830186610d58565b8181036080830152610dbc8185610cb7565b9050610dcb60a0830184610940565b979650505050505050565b610ddf81610936565b82525050565b610dee81610b88565b82525050565b600082825260208201905092915050565b6000610e1082610c71565b610e1a8185610df4565b9350610e2a818560208601610c8d565b610e3381610988565b840191505092915050565b610e4781610d46565b82525050565b600060c083016000830151610e656000860182610dd6565b506020830151610e786020860182610de5565b5060408301518482036040860152610e908282610e05565b9150506060830151610ea56060860182610e3e565b5060808301518482036080860152610ebd8282610e05565b91505060a0830151610ed260a0860182610dd6565b508091505092915050565b60006020820190508181036000830152610ef78184610e4d565b905092915050565b7f4e487b7100000000000000000000000000000000000000000000000000000000600052601160045260246000fd5b6000610f3982610936565b91507fffffffffffffffffffffffffffffffffffffffffffffffffffffffffffffffff8203610f6b57610f6a610eff565b5b600182019050919050565b7f4e487b7100000000000000000000000000000000000000000000000000000000600052602260045260246000fd5b60006002820490506001821680610fbd57607f821691505b602082108103610fd057610fcf610f76565b5b50919050565b60008190508160005260206000209050919050565b60006020601f8301049050919050565b600082821b905092915050565b6000600883026110387fffffffffffffffffffffffffffffffffffffffffffffffffffffffffffffffff82610ffb565b6110428683610ffb565b95508019841693508086168417925050509392505050565b6000819050919050565b600061107f61107a61107584610936565b61105a565b610936565b9050919050565b6000819050919050565b61109983611064565b6110ad6110a582611086565b848454611008565b825550505050565b600090565b6110c26110b5565b6110cd818484611090565b505050565b5b818110156110f1576110e66000826110ba565b6001810190506110d3565b5050565b601f8211156111365761110781610fd6565b61111084610feb565b8101602085101561111f578190505b61113361112b85610feb565b8301826110d2565b50505b505050565b600082821c905092915050565b60006111596000198460080261113b565b1980831691505092915050565b60006111728383611148565b9150826002028217905092915050565b61118b82610c71565b67ffffffffffffffff8111156111a4576111a3610999565b5b6111ae8254610fa5565b6111b98282856110f5565b600060209050601f8311600181146111ec57600084156111da578287015190505b6111e48582611166565b86555061124c565b601f1984166111fa86610fd6565b60005b82811015611222578489015182556001820191506020850194506020810190506111fd565b8683101561123f578489015161123b601f891682611148565b8355505b6001600288020188555050505b505050505050565b60006060820190506112696000830186610940565b818103602083015261127b8185610cb7565b9050818103604083015261128f8184610cb7565b9050949350505050565b7f4e6f74207468652063757272656e74206f776e65720000000000000000000000600082015250565b60006112cf601583610c7c565b91506112da82611299565b602082019050919050565b600060208201905081810360008301526112fe816112c2565b9050919050565b7f45676720616c7265616479207265636569766564000000000000000000000000600082015250565b600061133b601483610c7c565b915061134682611305565b602082019050919050565b6000602082019050818103600083015261136a8161132e565b9050919050565b600061137c82610936565b915061138783610936565b925082820190508082111561139f5761139e610eff565b5b92915050565b60006060820190506113ba6000830186610940565b6113c76020830185610d58565b81810360408301526113d98184610cb7565b9050949350505050565b7f496e76616c696420656767204944000000000000000000000000000000000000600082015250565b6000611419600e83610c7c565b9150611424826113e3565b602082019050919050565b600060208201905081810360008301526114488161140c565b905091905056fea26469706673582212203ca488b671e946fbeb09629deff5a3deffe8db10288116385a71eb461468ef1464736f6c634300081c0033",
  "linkReferences": {},
  "deployedLinkReferences": {}
}